{
  "contractName": "Balancer",
  "abi": [
    {
      "constant": false,
      "inputs": [],
      "name": "deposit",
      "outputs": [],
      "payable": true,
      "stateMutability": "payable",
      "type": "function"
    },
    {
      "constant": false,
      "inputs": [],
      "name": "rebalance",
      "outputs": [],
      "payable": false,
      "stateMutability": "nonpayable",
      "type": "function"
    },
    {
      "constant": false,
      "inputs": [],
      "name": "withdraw",
      "outputs": [],
      "payable": false,
      "stateMutability": "nonpayable",
      "type": "function"
    }
  ],
  "bytecode": "0x60806040526040518060400160405280601681526020017f446546692062616c616e63657220706c6174666f726d000000000000000000008152506000908051906020019061004f929190610062565b5034801561005c57600080fd5b50610107565b828054600181600116156101000203166002900490600052602060002090601f016020900481019282601f106100a357805160ff19168380011785556100d1565b828001600101855582156100d1579182015b828111156100d05782518255916020019190600101906100b5565b5b5090506100de91906100e2565b5090565b61010491905b808211156101005760008160009055506001016100e8565b5090565b90565b60a0806101156000396000f3fe60806040526004361060305760003560e01c80633ccfd60b1460355780637d7c2a1c146049578063d0e30db014605d575b600080fd5b348015604057600080fd5b5060476065565b005b348015605457600080fd5b50605b6067565b005b60636069565b005b565b565b56fea265627a7a72315820a60be7ee31e8573b9d0afd4741fdf8eb05ac2d298ec9327b7d19257eb89d6d9964736f6c63430005100032",
  "source": "//license\r\n\r\npragma solidity >=0.4.21 <0.8.14;\r\n\r\ncontract Balancer {\r\n    string private name =\"DeFi balancer platform\";\r\n\r\n    function deposit() public payable {\r\n        // will be used to deposit DAI\r\n    }\r\n\r\n    function rebalance() public {\r\n        // Will be used to rebalance and deposit again with high fees.\r\n        // Needs to be checked on Compound and AAVE both platforms and then return the high yield \r\n    }\r\n    function withdraw() public {\r\n        //Will be used to withdraw the deposited DAI from any of the pool.\r\n    }\r\n}",
  "sourcePath": "C:\\Users\\rds08\\OneDrive\\Documents\\GitHub\\starter_kit\\src\\contracts\\Balancer.sol",
  "compiler": {
    "name": "solc",
    "version": "0.5.16+commit.9c3226ce.Emscripten.clang"
  },
  "schemaVersion": "3.4.3",
  "updatedAt": "2021-09-22T03:51:14.840Z",
  "devdoc": {
    "methods": {}
  },
  "userdoc": {
    "methods": {}
  }
}